{"abi":[{"type":"function","name":"cancel","inputs":[{"name":"id","type":"uint256","internalType":"uint256"}],"outputs":[],"stateMutability":"nonpayable"},{"type":"function","name":"create","inputs":[{"name":"agent","type":"address","internalType":"address"},{"name":"token","type":"address","internalType":"address"},{"name":"amount","type":"uint256","internalType":"uint256"},{"name":"deadline","type":"uint256","internalType":"uint256"}],"outputs":[{"name":"id","type":"uint256","internalType":"uint256"}],"stateMutability":"nonpayable"},{"type":"function","name":"createETH","inputs":[{"name":"agent","type":"address","internalType":"address"},{"name":"deadline","type":"uint256","internalType":"uint256"}],"outputs":[{"name":"id","type":"uint256","internalType":"uint256"}],"stateMutability":"payable"},{"type":"function","name":"escrows","inputs":[{"name":"","type":"uint256","internalType":"uint256"}],"outputs":[{"name":"payer","type":"address","internalType":"address"},{"name":"agent","type":"address","internalType":"address"},{"name":"token","type":"address","internalType":"address"},{"name":"amount","type":"uint256","internalType":"uint256"},{"name":"deadline","type":"uint256","internalType":"uint256"},{"name":"status","type":"uint8","internalType":"enum AgentEscrow.Status"}],"stateMutability":"view"},{"type":"function","name":"nextId","inputs":[],"outputs":[{"name":"","type":"uint256","internalType":"uint256"}],"stateMutability":"view"},{"type":"function","name":"reclaim","inputs":[{"name":"id","type":"uint256","internalType":"uint256"}],"outputs":[],"stateMutability":"nonpayable"},{"type":"function","name":"release","inputs":[{"name":"id","type":"uint256","internalType":"uint256"}],"outputs":[],"stateMutability":"nonpayable"},{"type":"function","name":"withdraw","inputs":[{"name":"id","type":"uint256","internalType":"uint256"}],"outputs":[],"stateMutability":"nonpayable"},{"type":"event","name":"EscrowCancelled","inputs":[{"name":"id","type":"uint256","indexed":true,"internalType":"uint256"}],"anonymous":false},{"type":"event","name":"EscrowCreated","inputs":[{"name":"id","type":"uint256","indexed":true,"internalType":"uint256"},{"name":"payer","type":"address","indexed":true,"internalType":"address"},{"name":"agent","type":"address","indexed":true,"internalType":"address"},{"name":"token","type":"address","indexed":false,"internalType":"address"},{"name":"amount","type":"uint256","indexed":false,"internalType":"uint256"},{"name":"deadline","type":"uint256","indexed":false,"internalType":"uint256"}],"anonymous":false},{"type":"event","name":"EscrowRefunded","inputs":[{"name":"id","type":"uint256","indexed":true,"internalType":"uint256"},{"name":"payer","type":"address","indexed":true,"internalType":"address"},{"name":"amount","type":"uint256","indexed":false,"internalType":"uint256"}],"anonymous":false},{"type":"event","name":"EscrowReleased","inputs":[{"name":"id","type":"uint256","indexed":true,"internalType":"uint256"}],"anonymous":false},{"type":"event","name":"EscrowWithdrawn","inputs":[{"name":"id","type":"uint256","indexed":true,"internalType":"uint256"},{"name":"agent","type":"address","indexed":true,"internalType":"address"},{"name":"amount","type":"uint256","indexed":false,"internalType":"uint256"}],"anonymous":false},{"type":"error","name":"DeadlineNotPassed","inputs":[]},{"type":"error","name":"DeadlinePassed","inputs":[]},{"type":"error","name":"NotActive","inputs":[]},{"type":"error","name":"NotAgent","inputs":[]},{"type":"error","name":"NotPayer","inputs":[]},{"type":"error","name":"NotReleased","inputs":[]},{"type":"error","name":"ReentrancyGuardReentrantCall","inputs":[]},{"type":"error","name":"SafeERC20FailedOperation","inputs":[{"name":"token","type":"address","internalType":"address"}]},{"type":"error","name":"WrongETHAmount","inputs":[]},{"type":"error","name":"ZeroAddress","inputs":[]},{"type":"error","name":"ZeroAmount","inputs":[]}],"bytecode":{"object":"0x6080604052348015600e575f5ffd5b5060016029601f603360201b60201c565b605c60201b60201c565b5f01819055506065565b5f7f9b779b17422d0df92223018b32b4d1fa46e071723d6817e2486d003becc55f005f1b905090565b5f819050919050565b611884806100725f395ff3fe60806040526004361061007a575f3560e01c806340e58ee51161004d57806340e58ee51461013757806361b8ce8c1461015f578063d5c44c6914610189578063e15a1cc3146101c55761007a565b8063012f52ee1461007e5780632dabbeed146100bf5780632e1a7d4d146100e757806337bdc99b1461010f575b5f5ffd5b348015610089575f5ffd5b506100a4600480360381019061009f91906114a3565b6101f5565b6040516100b69695949392919061158f565b60405180910390f35b3480156100ca575f5ffd5b506100e560048036038101906100e091906114a3565b610296565b005b3480156100f2575f5ffd5b5061010d600480360381019061010891906114a3565b61051b565b005b34801561011a575f5ffd5b50610135600480360381019061013091906114a3565b61073a565b005b348015610142575f5ffd5b5061015d600480360381019061015891906114a3565b61089f565b005b34801561016a575f5ffd5b50610173610b44565b60405161018091906115ee565b60405180910390f35b348015610194575f5ffd5b506101af60048036038101906101aa9190611631565b610b49565b6040516101bc91906115ee565b60405180910390f35b6101df60048036038101906101da9190611695565b610e46565b6040516101ec91906115ee565b60405180910390f35b6001602052805f5260405f205f91509050805f015f9054906101000a900473ffffffffffffffffffffffffffffffffffffffff1690806001015f9054906101000a900473ffffffffffffffffffffffffffffffffffffffff1690806002015f9054906101000a900473ffffffffffffffffffffffffffffffffffffffff1690806003015490806004015490806005015f9054906101000a900460ff16905086565b61029e611114565b5f60015f8381526020019081526020015f209050805f015f9054906101000a900473ffffffffffffffffffffffffffffffffffffffff1673ffffffffffffffffffffffffffffffffffffffff163373ffffffffffffffffffffffffffffffffffffffff1614610339576040517f1435e35700000000000000000000000000000000000000000000000000000000815260040160405180910390fd5b5f600381111561034c5761034b61151c565b5b816005015f9054906101000a900460ff16600381111561036f5761036e61151c565b5b146103a6576040517f80cb55e200000000000000000000000000000000000000000000000000000000815260040160405180910390fd5b806004015442116103e3576040517f2eb3543000000000000000000000000000000000000000000000000000000000815260040160405180910390fd5b5f816003015490505f82600301819055506003826005015f6101000a81548160ff0219169083600381111561041b5761041a61151c565b5b0217905550610470826002015f9054906101000a900473ffffffffffffffffffffffffffffffffffffffff16835f015f9054906101000a900473ffffffffffffffffffffffffffffffffffffffff1683611136565b827f0d977c6b1a383ac5ce532b4a668d0ef9ad38478e1a5ff28abb221f4b682b264360405160405180910390a2815f015f9054906101000a900473ffffffffffffffffffffffffffffffffffffffff1673ffffffffffffffffffffffffffffffffffffffff16837feac97bc1917fcedc984e3d0671d4e83b359890323d5d1c2de32b28d17c356ced8360405161050691906115ee565b60405180910390a35050610518611248565b50565b610523611114565b5f60015f8381526020019081526020015f209050806001015f9054906101000a900473ffffffffffffffffffffffffffffffffffffffff1673ffffffffffffffffffffffffffffffffffffffff163373ffffffffffffffffffffffffffffffffffffffff16146105bf576040517f0d9ab13f00000000000000000000000000000000000000000000000000000000815260040160405180910390fd5b600160038111156105d3576105d261151c565b5b816005015f9054906101000a900460ff1660038111156105f6576105f561151c565b5b1461062d576040517f9316dab000000000000000000000000000000000000000000000000000000000815260040160405180910390fd5b5f816003015490505f82600301819055506002826005015f6101000a81548160ff021916908360038111156106655761066461151c565b5b02179055506106bb826002015f9054906101000a900473ffffffffffffffffffffffffffffffffffffffff16836001015f9054906101000a900473ffffffffffffffffffffffffffffffffffffffff1683611136565b816001015f9054906101000a900473ffffffffffffffffffffffffffffffffffffffff1673ffffffffffffffffffffffffffffffffffffffff16837fdad95b5f3fe18b96b3534f466eadf97e7bbcafa9a0f9c3b9a216ff889851e2a28360405161072591906115ee565b60405180910390a35050610737611248565b50565b5f60015f8381526020019081526020015f209050805f015f9054906101000a900473ffffffffffffffffffffffffffffffffffffffff1673ffffffffffffffffffffffffffffffffffffffff163373ffffffffffffffffffffffffffffffffffffffff16146107d5576040517f1435e35700000000000000000000000000000000000000000000000000000000815260040160405180910390fd5b5f60038111156107e8576107e761151c565b5b816005015f9054906101000a900460ff16600381111561080b5761080a61151c565b5b14610842576040517f80cb55e200000000000000000000000000000000000000000000000000000000815260040160405180910390fd5b6001816005015f6101000a81548160ff021916908360038111156108695761086861151c565b5b0217905550817f69833829d5691ae09424af7d16f73adf033451149ea9c2fc6fcb4c44108eef6760405160405180910390a25050565b6108a7611114565b5f60015f8381526020019081526020015f209050805f015f9054906101000a900473ffffffffffffffffffffffffffffffffffffffff1673ffffffffffffffffffffffffffffffffffffffff163373ffffffffffffffffffffffffffffffffffffffff16141580156109685750806001015f9054906101000a900473ffffffffffffffffffffffffffffffffffffffff1673ffffffffffffffffffffffffffffffffffffffff163373ffffffffffffffffffffffffffffffffffffffff1614155b1561099f576040517f1435e35700000000000000000000000000000000000000000000000000000000815260040160405180910390fd5b5f60038111156109b2576109b161151c565b5b816005015f9054906101000a900460ff1660038111156109d5576109d461151c565b5b14610a0c576040517f80cb55e200000000000000000000000000000000000000000000000000000000815260040160405180910390fd5b5f816003015490505f82600301819055506003826005015f6101000a81548160ff02191690836003811115610a4457610a4361151c565b5b0217905550610a99826002015f9054906101000a900473ffffffffffffffffffffffffffffffffffffffff16835f015f9054906101000a900473ffffffffffffffffffffffffffffffffffffffff1683611136565b827f0d977c6b1a383ac5ce532b4a668d0ef9ad38478e1a5ff28abb221f4b682b264360405160405180910390a2815f015f9054906101000a900473ffffffffffffffffffffffffffffffffffffffff1673ffffffffffffffffffffffffffffffffffffffff16837feac97bc1917fcedc984e3d0671d4e83b359890323d5d1c2de32b28d17c356ced83604051610b2f91906115ee565b60405180910390a35050610b41611248565b50565b5f5481565b5f5f73ffffffffffffffffffffffffffffffffffffffff168573ffffffffffffffffffffffffffffffffffffffff1603610baf576040517fd92e233d00000000000000000000000000000000000000000000000000000000815260040160405180910390fd5b5f8303610be8576040517f1f2a200500000000000000000000000000000000000000000000000000000000815260040160405180910390fd5b5f5f815480929190610bf990611700565b9190505590506040518060c001604052803373ffffffffffffffffffffffffffffffffffffffff1681526020018673ffffffffffffffffffffffffffffffffffffffff1681526020018573ffffffffffffffffffffffffffffffffffffffff1681526020018481526020018381526020015f6003811115610c7d57610c7c61151c565b5b81525060015f8381526020019081526020015f205f820151815f015f6101000a81548173ffffffffffffffffffffffffffffffffffffffff021916908373ffffffffffffffffffffffffffffffffffffffff1602179055506020820151816001015f6101000a81548173ffffffffffffffffffffffffffffffffffffffff021916908373ffffffffffffffffffffffffffffffffffffffff1602179055506040820151816002015f6101000a81548173ffffffffffffffffffffffffffffffffffffffff021916908373ffffffffffffffffffffffffffffffffffffffff160217905550606082015181600301556080820151816004015560a0820151816005015f6101000a81548160ff02191690836003811115610d9f57610d9e61151c565b5b0217905550905050610dd43330858773ffffffffffffffffffffffffffffffffffffffff16611262909392919063ffffffff16565b8473ffffffffffffffffffffffffffffffffffffffff163373ffffffffffffffffffffffffffffffffffffffff16827fd91ffdf72f8c3d62bbe8989808f4896563a1455682e9170c1384b1f90536792e878787604051610e3693929190611747565b60405180910390a4949350505050565b5f5f73ffffffffffffffffffffffffffffffffffffffff168373ffffffffffffffffffffffffffffffffffffffff1603610eac576040517fd92e233d00000000000000000000000000000000000000000000000000000000815260040160405180910390fd5b5f3403610ee5576040517f1f2a200500000000000000000000000000000000000000000000000000000000815260040160405180910390fd5b5f5f815480929190610ef690611700565b9190505590506040518060c001604052803373ffffffffffffffffffffffffffffffffffffffff1681526020018473ffffffffffffffffffffffffffffffffffffffff1681526020015f73ffffffffffffffffffffffffffffffffffffffff1681526020013481526020018381526020015f6003811115610f7a57610f7961151c565b5b81525060015f8381526020019081526020015f205f820151815f015f6101000a81548173ffffffffffffffffffffffffffffffffffffffff021916908373ffffffffffffffffffffffffffffffffffffffff1602179055506020820151816001015f6101000a81548173ffffffffffffffffffffffffffffffffffffffff021916908373ffffffffffffffffffffffffffffffffffffffff1602179055506040820151816002015f6101000a81548173ffffffffffffffffffffffffffffffffffffffff021916908373ffffffffffffffffffffffffffffffffffffffff160217905550606082015181600301556080820151816004015560a0820151816005015f6101000a81548160ff0219169083600381111561109c5761109b61151c565b5b02179055509050508273ffffffffffffffffffffffffffffffffffffffff163373ffffffffffffffffffffffffffffffffffffffff16827fd91ffdf72f8c3d62bbe8989808f4896563a1455682e9170c1384b1f90536792e5f348760405161110693929190611747565b60405180910390a492915050565b61111c6112b7565b600261112e6111296112f8565b611321565b5f0181905550565b5f73ffffffffffffffffffffffffffffffffffffffff168373ffffffffffffffffffffffffffffffffffffffff1603611217575f8273ffffffffffffffffffffffffffffffffffffffff168260405161118e906117a9565b5f6040518083038185875af1925050503d805f81146111c8576040519150601f19603f3d011682016040523d82523d5f602084013e6111cd565b606091505b5050905080611211576040517f08c379a000000000000000000000000000000000000000000000000000000000815260040161120890611817565b60405180910390fd5b50611243565b61124282828573ffffffffffffffffffffffffffffffffffffffff1661132a9092919063ffffffff16565b5b505050565b600161125a6112556112f8565b611321565b5f0181905550565b61127084848484600161137d565b6112b157836040517f5274afe70000000000000000000000000000000000000000000000000000000081526004016112a89190611835565b60405180910390fd5b50505050565b6112bf6113ee565b156112f6576040517f3ee5aeb500000000000000000000000000000000000000000000000000000000815260040160405180910390fd5b565b5f7f9b779b17422d0df92223018b32b4d1fa46e071723d6817e2486d003becc55f005f1b905090565b5f819050919050565b611337838383600161140a565b61137857826040517f5274afe700000000000000000000000000000000000000000000000000000000815260040161136f9190611835565b60405180910390fd5b505050565b5f5f6323b872dd60e01b9050604051815f525f1960601c87166004525f1960601c86166024528460445260205f60645f5f8c5af1925060015f511483166113db5783831516156113cf573d5f823e3d81fd5b5f883b113d1516831692505b806040525f606052505095945050505050565b5f60026114016113fc6112f8565b611321565b5f015414905090565b5f5f63a9059cbb60e01b9050604051815f525f1960601c86166004528460245260205f60445f5f8b5af1925060015f5114831661145e578383151615611452573d5f823e3d81fd5b5f873b113d1516831692505b806040525050949350505050565b5f5ffd5b5f819050919050565b61148281611470565b811461148c575f5ffd5b50565b5f8135905061149d81611479565b92915050565b5f602082840312156114b8576114b761146c565b5b5f6114c58482850161148f565b91505092915050565b5f73ffffffffffffffffffffffffffffffffffffffff82169050919050565b5f6114f7826114ce565b9050919050565b611507816114ed565b82525050565b61151681611470565b82525050565b7f4e487b71000000000000000000000000000000000000000000000000000000005f52602160045260245ffd5b6004811061155a5761155961151c565b5b50565b5f81905061156a82611549565b919050565b5f6115798261155d565b9050919050565b6115898161156f565b82525050565b5f60c0820190506115a25f8301896114fe565b6115af60208301886114fe565b6115bc60408301876114fe565b6115c9606083018661150d565b6115d6608083018561150d565b6115e360a0830184611580565b979650505050505050565b5f6020820190506116015f83018461150d565b92915050565b611610816114ed565b811461161a575f5ffd5b50565b5f8135905061162b81611607565b92915050565b5f5f5f5f608085870312156116495761164861146c565b5b5f6116568782880161161d565b94505060206116678782880161161d565b93505060406116788782880161148f565b92505060606116898782880161148f565b91505092959194509250565b5f5f604083850312156116ab576116aa61146c565b5b5f6116b88582860161161d565b92505060206116c98582860161148f565b9150509250929050565b7f4e487b71000000000000000000000000000000000000000000000000000000005f52601160045260245ffd5b5f61170a82611470565b91507fffffffffffffffffffffffffffffffffffffffffffffffffffffffffffffffff820361173c5761173b6116d3565b5b600182019050919050565b5f60608201905061175a5f8301866114fe565b611767602083018561150d565b611774604083018461150d565b949350505050565b5f81905092915050565b50565b5f6117945f8361177c565b915061179f82611786565b5f82019050919050565b5f6117b382611789565b9150819050919050565b5f82825260208201905092915050565b7f455448207472616e73666572206661696c6564000000000000000000000000005f82015250565b5f6118016013836117bd565b915061180c826117cd565b602082019050919050565b5f6020820190508181035f83015261182e816117f5565b9050919050565b5f6020820190506118485f8301846114fe565b9291505056fea264697066735822122077f310f3c24f6aaff67732615d403ca3504a8c71a6371212ca5277361576e04964736f6c63430008210033","linkReferences":{}},"methodIdentifiers":{"cancel(uint256)":"40e58ee5","create(address,address,uint256,uint256)":"d5c44c69","createETH(address,uint256)":"e15a1cc3","escrows(uint256)":"012f52ee","nextId()":"61b8ce8c","reclaim(uint256)":"2dabbeed","release(uint256)":"37bdc99b","withdraw(uint256)":"2e1a7d4d"},"id":32}